:020000040800F2
:1000000060050020050100089F1E0008A7190008D0
:100010009D1E0008630A000825200008000000005B
:10002000000000000000000000000000A31E000807
:10003000650A000800000000A11E0008A51E0008B7
:100040001F0100081F0100081F0100081F01000810
:100050001F0100081F0100081F0100081F01000800
:100060001F0100081F0100081F0100081F010008F0
:100070001F0100081F0100081F0100081F010008E0
:100080001F0100081F0100081F0100081F010008D0
:100090001F0100081F0100081F0100081F010008C0
:1000A0001F0100081F0100081F0100081F010008B0
:1000B0001F0100081F0100081F0100081F010008A0
:1000C0001F0100081F0100081F0100081F01000890
:1000D0001F0100081F0100081F0100081F01000880
:1000E0001F0100081F0100081F010008DFF810D0E1
:1000F00000F084FC004800471D390008AFF3008081
:10010000600500200648804706480047FEE7FEE7F6
:10011000FEE7FEE7FEE7FEE7FEE7FEE7FEE7FEE7B7
:10012000071F0008ED000008202A04DB203A21FA0E
:1001300002F00021704721FA02F3D040C2F1200200
:10014000914008431946704740EA01039B0703D0DA
:1001500009E008C9121F08C0042AFAD203E011F806
:10016000013B00F8013B521EF9D27047D2B201E0C8
:1001700000F8012B491EFBD270470022F6E710B5AC
:1001800013460A4604461946FFF7F0FF204610BD05
:10019000F0B480EA0102D40F4200B2EB410F02D268
:1001A0000246084611464A0042D0C30DDDB2C1F3F3
:1001B000C752AD1A202D35DAC1F3160141F4000201
:1001C00004B15242C5F1200602FA06F12A41104458
:1001D000B3EBD05F23D0C4B1012DA0EBC35009DC39
:1001E000F0BC4FF0004202EAC352DBB200F500005F
:1001F00000F0CAB9400000F1807000EBC350A0F1DC
:10020000807040EAD170490009E0490841EAC071B4
:10021000A0EBC35000F50000400800EBC350F0BC59
:1002200000F0A9B96142012202EB4101001BF6E78F
:10023000F0BC704781F00041AAE780F00040A7E7DA
:1002400080EA010210B502F00043400022D04A00CB
:100250001FD0010E01EB1261C0F35600C2F356022B
:1002600040F4000042F40002A0FB022000047F39A9
:10027000140400D0401C50EA124001D44000491E32
:10028000C2B20C0604EBD010401C4008802A02D0F9
:1002900003E0002010BD20F00100002900DA00205A
:1002A000184310BD30B480EA010202F0004530F07E
:1002B000004221F0004013D090B1C30DD40DC2F321
:1002C0001601C0F31600E41A41F4000140F40002E4
:1002D0007D34914201D3641C00E04900002C02DA15
:1002E00030BC002070474FF400000023914201D33E
:1002F000891A034340084FEA4101F7D151B19142B5
:1003000002D14FF0004105E002D24FF0010101E0BF
:100310006FF0010103EBC450284430BC00F02BB94E
:10032000420005D0C0F3C7525242914201DC002086
:10033000704700EBC15070472DE9FE4F81EA03047E
:1003400004F0004421F0004100944FF0000B23F032
:10035000004350EA01045ED052EA03045BD0C3F3C9
:100360000A54C1F30A552C44A4F2F3340194A0FBBF
:100370000254C1F3130141F48011C3F3130343F496
:10038000801301FB024400FB034E840A970A44EAEF
:10039000815447EA8357A4FB076802958D0A05FB41
:1003A00007854FEA932C04FB0C542705029D4FEA66
:1003B000065847EA1637B5EB08056EEB070C870EB3
:1003C000920E47EA811742EA8312A7FB0201B6EBBD
:1003D0000B0164EB00042B0D43EA0C335E1844EB75
:1003E0001C50DA465146E7FB0201C5F313044FEAFD
:1003F0000B3343EA14534FEA0432019C43EA0603E9
:10040000A4F10C040294009CCDE900B400F0F9F8CA
:1004100003B0BDE8F08F00200146F9E7C10F80EA84
:10042000E0700844CA079623002100F0ADB8962377
:100430000022114600F0A8B80EB5C10F80EAE070A6
:100440000844CA07002140F233438DE80E000A46F3
:100450000B4600F0D6F803B000BD00F0004230F0CB
:1004600000400AD0C10D01F56071C0F3160042EAE8
:100470000151C208400711437047002001467047F0
:1004800030B5041E71F1000404DB4FF0004440421B
:1004900064EB0101141E73F1000405DB1C464FF0F0
:1004A0000043524263EB0403994208BF904230BDBF
:1004B00001F0004330B421F0004150EA010206D0BF
:1004C0000A0DA2F56072C1F31301002A02DC30BCF0
:1004D00000207047440F44EAC104C100E01830BC5A
:1004E00000EBC25000F047B830B50B460146002083
:1004F0002022012409E021FA02F59D4205D303FAE6
:1005000002F5491B04FA02F52844151EA2F1010266
:10051000F1DC30BD2DE9F05F0546002092469B4698
:1005200088460646814640241BE028464146474609
:100530002246FFF7F9FD53465A46C01A914110D39F
:1005400011461846224600F06BFA2D1A67EB010897
:100550004F4622460120002100F062FA17EB000905
:100560004E41201EA4F10104DFDC484631462A46F4
:100570004346BDE8F09F0029A8BF7047401C4900D2
:1005800008BF20F00100704710B4B0FA80FC00FAF8
:100590000CF050EA010404BF10BC704749B1CCF123
:1005A000200421FA04F411FA0CF118BF01212143AF
:1005B0000843A3EB0C01CB1D4FEA00614FEA10206A
:1005C00042BF002010BC704700EBC350104400290C
:1005D000A4BF10BC7047401C490008BF20F00100B8
:1005E00010BC704710B5141E73F1000408DA401CEB
:1005F00041F1000192185B411A4301D120F0010042
:1006000010BD2DE9F04D92469B4611B1B1FA81F231
:1006100002E0B0FA80F22032904600F001FA04467F
:100620000F4640EA0A0041EA0B0153465A46084386
:1006300013D0114653EA010019D0C8F140025046C8
:10064000FFF772FD05460E4650465946424600F0F9
:10065000E7F9084305D0012004E020463946BDE80B
:10066000F08D0020054346EAE0762C4337430A9894
:100670006305E40AA0EB08000022FD0A44EA47549F
:100680000A3002D500200146E9E701051019694149
:10069000DDE9084500196941BDE8F04DA2E72DE903
:1006A000FE4F804681EA0300C00F0C46009021F007
:1006B000004123F00045B8EB0200A94105D24046B5
:1006C000214690461C460B46024623F0004010434C
:1006D00047D0270DC7F30A00C3F30A510290401A0E
:1006E000019040286BDAC3F3130040F4801B00989C
:1006F000924620B10023D2EB030A63EB0B0B019867
:100700005946C0F14002504600F08AF906460D46AF
:1007100050465946019A00F092F910EB08006141E9
:10072000002487EA115284EAE7731A4340D0009A02
:1007300062B3019A012A4FEA075215DC001B61EBF4
:1007400002014FF0004202EA0752CDE90042001CCC
:1007500041F5801132462B46FFF753FF03B0BDE849
:10076000F08F40462146F9E7001B61EB0201001CB7
:1007700041F5801300185B412018A2F5001747EBE4
:10078000030140EAD570B6196D4111E06D084FEADA
:10079000360645EAC0754FEA0752001B61EB0201BD
:1007A000001C41F5801149084FEA30000019514101
:1007B00032462B4603B0BDE8F04FFFF713BF009859
:1007C000012240000023D0EB020263EBE0730098AB
:1007D00021464FEAE074B8EB000061EB0401E9E761
:1007E00083F000435BE781F0004158E72DE9F04DCD
:1007F00081EA030404F0004B21F0004514464FF059
:10080000000A23F0004150EA050220D054EA010218
:100810001DD0C5F30A570246C5F31303C1F31300F5
:10082000C1F30A5640F4801543F48013A7EB060881
:10083000101BD64608F2FD3873EB050002D308F111
:10084000010801E092185B41B8F1000F03DA0020C3
:100850000146BDE8F08D00204FF480110646844625
:100860000EE0171B73EB050705D3121B63EB0503A3
:1008700006434CEA010C49084FEA300092185B41EC
:1008800050EA0107EDD152EA030012D082EA0400D7
:1008900083EA0501084305D0101BAB4106D20122B3
:1008A000002306E000224FF0004302E06FF0010257
:1008B00053101AEB06004CEB085110EB0A0041EB09
:1008C0000B01BDE8F04DFFF78DBE70B521F0004380
:1008D00003430CD0C1F30A550024D5EB040564EBA7
:1008E0000403D617AD1AB34102DB0020014670BDE8
:1008F000201841EB025170BD2DE9F04D00231A463E
:100900001B1A8A4103DB00200146BDE8F08DC1F3CC
:100910000A52C1F3130141F480154FF0000BD107C7
:1009200002D100186D41521E0027044640F2FF110B
:10093000384601EB620A3E468046024600204FF4EC
:100940008011FFF7F1FBC2197141BB1846EB0100A2
:10095000B4EB030C75EB000C04D3E41A65EB000553
:1009600017460E46241908F101006D4180463428CF
:10097000E3DDF91946EB0600091BA84103D24FF04D
:10098000FF32134601E0002213461BEB070046EB43
:100990000A51BDE8F04DFFF725BEC1F30A52C1F37D
:1009A000130140F2FF3341F480119A4202DA002031
:1009B0000146704740F233439A42A2F2334202DCCE
:1009C0005242FFF7B1BB00F02BB8000030B5041E57
:1009D00071F1000404DB4FF00044404264EB01017C
:1009E000141E73F1000405DB1C464FF00043524215
:1009F00063EB04038B4208BF824230BD064C074DB7
:100A000006E0E06840F0010394E8070098471034DE
:100A1000AC42F6D3FFF76EFB683D0008883D000846
:100A2000202A04DB203A00FA02F1002070479140AE
:100A3000C2F1200320FA03F3194390407047202AA3
:100A400006DBCB17203A41FA02F043EAE07306E0F6
:100A500041FA02F3D040C2F1200291400843194606
:100A60007047FEE7704772B6FEE7000070B50446B7
:100A700000F004F90546601C02D0044800780444E4
:100A800000F0FCF8401BA042FAD370BD000000202B
:100A90002DE9F84FDFF8B891002409F1040A0AF1B2
:100AA000040B23460F270BF1040EC9E00125A540D6
:100AB0002A40AA427DD1674ED1F804C0ACEB0608AB
:100AC000B44532D014DCBCF1030F3AD009DCBCF1E0
:100AD000000F2AD0BCF1010F1CD0BCF1020F31D1A4
:100AE0001DE0BCF1110F17D0BCF1120F2AD119E093
:100AF000B8F5881F19D006DCB8F5803F15D0B8F5D9
:100B0000801F1FD111E0B8F5001F0ED0B8F5041FEB
:100B100018D10AE0CB6815E0CB681B1D12E0CB684A
:100B200008330FE0CB680C330CE08B682BB1012B42
:100B30004FF0080303D0456104E0042302E005619F
:100B400000E00023FF2A01D8064601E000F1040678
:100B50004FEA840501D9A5F12005D6F8008007FAEF
:100B600005FC28EA0C0803FA05F548EA0508C6F86A
:100B700000804D68ED0062D5374DAE6946F0010644
:100B8000AE61AD6924F0030605F001050095334D13
:100B900006EB050CDCF80850A607360F07FA06F836
:100BA00025EA0805DFF8B880404503D14FF000087A
:100BB00017E044E0DFF8AC80404502D14FF0010877
:100BC0000FE0DFF8A480404502D14FF0020808E0B2
:100BD000DFF89880404502D14FF0030801E04FF064
:100BE000040808FA06F848EA0508CCF808804D68B9
:100BF000D9F80060ED034D4601D5164300E0964359
:100C00002E604D68DAF80060AD03554601D51643F5
:100C100000E096432E604D68DBF80060ED025D4613
:100C200001D5164300E096432E604D68DEF8006063
:100C3000AD02754601D5164300E096432E60641C54
:100C40000D682A46E5407FF431AFBDE8F88F00001B
:100C5000000401400000111000100240000001409B
:100C600000080140000C0140001001400014014048
:100C70000AB1016170470904FBE700000148806880
:100C8000704700000000002070B5040025D094F8E3
:100C90003D00002520B984F83C50204600F078FA49
:100CA000242084F83D002068016821F001010160E2
:100CB0002068016841F4004101602068016821F466
:100CC0000041016000F0B2FB4D4A6168914201D8D9
:100CD0004C4900E04C49884201D2012070BD4B498B
:100CE0002368B0FBF1F15E6826F03F060E435E60BC
:100CF0006368934206D94FF4967359434FF47A735D
:100D0000B1FBF3F12368491C1E6A26F03F0631430C
:100D100019626168914210D84900401EB0FBF1F29F
:100D2000521CC2F30B02042A01D2042022E0B0FBC1
:100D3000F1F0401CC0F30B001CE0A268F2B301EB21
:100D4000C10303EB0116431EB3FBF6F35B1C43F434
:100D500080431B0549D092B301EBC10202EB0111A4
:100D6000401EB0FBF1F0401CC0F30B0040F480408B
:100D700040F400402168CA694CF6FF739A4310435F
:100D8000C861D4E9071001432068026822F0C0025C
:100D900011430160D4E9030101432068826848F2ED
:100DA000FF339A4311438160D4E905010843216868
:100DB000CA6822F0FF021043C86001E00EE016E0AE
:100DC0002068016841F0010101602564202084F859
:100DD0003D00256384F83E50002070BD01EB4106C4
:100DE000431EB3FBF6F35B1CB3E70120C2E701EB44
:100DF0004101401EB0FBF1F0401CC0F30B00B7E70F
:100E0000A086010080841E0000093D0040420F00C2
:100E10002DE9FF4F83B00025DDE910799A4693460E
:100E20000446DDF848800095FFF728FF064694F851
:100E30003D0020287CD119230122854920460096B7
:100E400000F0C2FE0028F5D194F83C0001286FD0D4
:100E5000012084F83C0020680168C90703D10168BB
:100E600041F0010101602068016821F40061016026
:100E7000222084F83D00402084F83E00256467620B
:100E8000A4F82A90608D20857248E062CDE9008642
:100E900053465A462046049900F09EFD00287DD115
:100EA000208DDFF8B491202768B1012814D00228E2
:100EB000206801681ED041F48061016020684169AA
:100EC00080690090B6E020684169816900910168FD
:100ED00041F400710160ADE02068016821F4806197
:100EE000016072B62068416981690091016841F42E
:100EF00000710AE041F40061016072B62068416946
:100F000081690091016821F48061016062B691E01D
:100F1000032868D801280CD0022843464FF000026D
:100F20004946204600960FD000F04EFEB0BB10E0C0
:100F30008BE032464146204600F0C5FE70BB20687B
:100F40000069616A08706CE000F03EFE30BB72B66A
:100F500034E02068016821F48061016072B6206885
:100F60000069616A0870606A401C6062208D401EE2
:100F70002085608D401E6085384846F2A8110068C3
:100F8000B0FBF1F0C0EBC00000EB80000090401E11
:100F9000009008D020684069C04300E029E0400785
:100FA0000CD50098F3E744F8305F6773A5732069A8
:100FB00040F02000206162B625731AE020680168C5
:100FC00041F40071016020680069616A0870606A1C
:100FD000401C6062218D491E2185618D491E6185FD
:100FE00062B621681BE032464146204600F06BFEA7
:100FF00018B1012007B0BDE8F08F20680069616A70
:101000000870606A401C6062218D491E2185618DD7
:10101000491E618521684A69D24352070AD4096989
:101020000170606A401C6062208D401E2085608DCA
:10103000401E6085208D00287FF46AAF84F83D70E3
:1010400084F83E5084F83C50D4E70220D2E70000F8
:10105000020010000000FFFF040001000C0000204F
:101060002DE9FF4F83B09A46DDE911979346044678
:10107000DDF84080FFF702FE054694F83D00202889
:101080007FD11923012240492046009500F09CFDA4
:10109000002876D194F83C00012872D0012084F811
:1010A0003C0020680168C90703D1016841F00101D3
:1010B00001602068016821F400610160212084F84A
:1010C0003D00402084F83E0000262664C4F82480B9
:1010D000A4F82A90608D20852C48E062CDE9007547
:1010E00053465A462046049900F0F4FC70B930E0AB
:1010F0002A463946204600F019FE58B1206C0428D3
:1011000004D12068016841F400710160012007B03A
:10111000BDE8F08F606A216800780861606A401C51
:101120006062218D491E89B22185628D521E6285C1
:1011300022685369DB435B070BD469B10078106107
:10114000606A401C6062208D401E2085608D401EBC
:101150006085208D0028CBD12A463946204600F0F4
:101160000DFD0028CAD154F83D0B016841F400710F
:101170000160202004F81E09E67766770020C6E7A4
:10118000FFE70220C3E70000020010000000FFFF9D
:1011900010B586B000210091019102910391006881
:1011A0000F4988421AD10F4CA06940F00800A06195
:1011B000A069694600F008000490C0200090122049
:1011C0000190032003900848FFF762FCE06940F4B7
:1011D0000010E061E06900F40010049006B010BD5A
:1011E0000054004000100240000C01400248816899
:1011F000027811448160704700000020074810B554
:10120000016841F010010160032000F067F80F2031
:1012100000F006F800F024F8002010BD0020024085
:1012200070B50D4D04464FF47A712878B1FBF0F09B
:101230000A490968B1FBF0F000F0DEFA48B9102C59
:1012400007D200222146501E00F028F800206C60D2
:1012500070BD012070BD0000000000200C000020C7
:101260000C4808B5816941F001018161816901F093
:1012700001010091C16941F08051C161C06900F074
:10128000805000900448416821F0E06141F0007115
:10129000416008BD0010024000000140F0B40E4B58
:1012A0001B680C46C3F30223C3F10705042D00D9C4
:1012B0000425191D072901D2002300E0DB1E0126A9
:1012C00006FA05F1491E214099409E40761E1640BF
:1012D0003143F0BC00F0CCBE0CED00E0064900F05C
:1012E000070208684FF6FF03184040EA0220034A4D
:1012F00010430860704700000CED00E00000FA05A4
:101300002DE9F0470F46050061D0434E306800F0EC
:101310000700B84209D2306820F007003843306037
:10132000306800F00700B84251D128683B4C810773
:1013300012D5400703D5606840F4E060606028780B
:10134000000703D5606840F4605060606068A96879
:1013500020F0F000084360602878C00728D0686853
:10136000012810D02168022810D0890700292EDA20
:10137000616821F0030101436160FFF77FFC804653
:1013800041F288390DE021688903EFE78901EDE733
:10139000FFF774FCA0EB0801494502D90320BDE822
:1013A000F0876068696800F00C00B0EB810FEFD146
:1013B000306800F00700B8420BD9306820F0070011
:1013C00038433060306800F00700B84201D0012097
:1013D000E5E72878400705D56068E96820F4E06013
:1013E000084360602878000706D56068296920F402
:1013F000605040EAC100606000F038F86168084A57
:10140000C1F30311515CC8400649086006480068F2
:10141000FFF706FF0020C2E7002002400010024054
:101420004C3C00080C000020040000200448054942
:1014300000684968044AC1F30221515CC840704702
:101440000C000020001002405C3C000804480549E4
:1014500000684968044AC1F3C221515CC840704722
:101460000C000020001002405C3C000812A185B076
:101470000FC98DE80F0014A0144A00680490516849
:10148000134801F00C03042B10D0082B0ED1C1F32C
:101490008343C9031DF803000AD5516804AAC1F3A8
:1014A0004041515C0A4A5043B0FBF1F005B070472F
:1014B00008494843FAE70000020304050607080943
:1014C0000A0B0C0D0E0F101001020000001002405C
:1014D00000127A0000093D002DE9F84F040070D099
:1014E0002078C04DC00749D06868C0F3810001284A
:1014F00007D06868C0F38100022809D16868C0037A
:1015000006D52868800339D560680028E7D035E023
:101510006068B0F5803F0BD010B1B0F5A02F11D0AE
:10152000286820F480302860286820F4802002E0B9
:10153000286840F480302860606890B1FFF79EFB17
:1015400006460AE0286840F480202860F0E700BFE3
:10155000FFF794FB801B642873D828688003F7D5B5
:101560000CE0FFF78BFB064605E000BFFFF786FBAC
:10157000801B6428F0D828688003F7D420789A4E1E
:1015800080074FF001094FF0000839D5686810F066
:101590000C0F07D06868C0F38100022809D1686881
:1015A000C00306D42868800714D52069012808D113
:1015B00010E02069B0B1C6F80090FFF75FFB074666
:1015C00005E00AE1FFF75AFBC01B0228C4D82868CF
:1015D0008007F7D52868616920F0F80040EAC1006B
:1015E00028600DE0C6F80080FFF748FB074604E0DE
:1015F000FFF744FBC01B022823D828688007F7D4D4
:10160000207800072CD57948A169D9B1C0F800909D
:10161000FFF734FB074604E0FFF730FBC01B02284E
:101620000FD8686A8007F7D571484FF4FA510068FF
:10163000B0FBF1F0009000BF0098411E0091FAD27B
:101640000EE080E0C0F80080FFF718FB074604E0DA
:10165000FFF714FBC01B022875D8686A8007F7D40F
:101660002078400760D5E8690027C00008D4E86901
:1016700040F08050E861E869012700F08050009058
:101680005C480168C90513D40168834641F4807140
:101690000160FFF7F3FA824606E000BFFFF7EEFABB
:1016A000A0EB0A0064284ED8DBF80000C005F5D591
:1016B000E06801280AD008B1052813D0286A20F074
:1016C00001002862286A20F0040002E0286A40F045
:1016D00001002862E06841F2883B98B1FFF7CEFA3A
:1016E00082460BE0286A40F004002862EEE700BF63
:1016F000FFF7C4FAA0EB0A0159455AD8286A8007B7
:10170000F6D50CE0FFF7BAFA824605E0FFF7B6FA25
:10171000A0EB0A0159454CD8286A8007F6D41FB1BE
:10172000E86920F08050E861E06988B36968C1F336
:101730008101022944D00228C6F8608004D0FFF756
:101740009DFA044638E034E0FFF798FA074604E0D3
:10175000FFF794FAC01B02282BD828688001F7D421
:10176000206AB0F5803F05D16868A16820F4003098
:1017700008436860D4E908010843696821F47411DA
:1017800008436860C6F86090FFF778FA044606E000
:1017900025E000BFFFF772FA001B022809D828686D
:1017A0008001F7D51BE000BFFFF768FA001B022895
:1017B00002D90320BDE8F88F28688001F4D40EE038
:1017C0000128F7D06868226A00F48031914204D180
:1017D000616A00F47010884201D00120EAE700201D
:1017E000E8E700000010024000004242800442424C
:1017F0000C0000200070004010B5401EB0F1807F4A
:1018000001D3012010BD4FF0E02460610F2160176B
:1018100000F02EFC0020A06107202061002010BDF8
:1018200070B5040004D094F83D00002510B106E026
:10183000012070BD84F83C50204600F023F824209D
:1018400084F83D002068C16821F40051C160204641
:1018500000F05AFB2068016921F490410161206881
:10186000416921F02A0141612068C16841F40051B9
:10187000C1602564202084F83D0084F83E000020EB
:1018800070BD000030B585B000240094019402942E
:10189000039400681449884224D11448816941F4B2
:1018A00080418161816901F480410491816941F045
:1018B0000401816180690E4D00F0040004904FF432
:1018C0000070009002200190032003906946284692
:1018D000FFF7DEF82815CDE9000469462846029492
:1018E000FFF7D6F805B030BD0038014000100240C7
:1018F000000801402DE9F843044690F83D001F46DA
:1019000016460D4620284CD1C5B1BEB194F83C0016
:10191000012846D0012084F83C004FF00008C4F8AC
:101920004080212084F83D00FFF7A8F9A684814675
:10193000E684A068B0F5805F03D004E00120BDE834
:10194000F883206928B12E465FF0000584F83C80BA
:101950000EE00026FAE78021204600F031FBA0B916
:10196000AEB116F8010B21684860E08C401EE0849F
:10197000E08C4B464FF0000200970028EBD14FF06F
:101980004001204600F01CFB30B10320D7E735F8BA
:10199000020BC0F30800E6E7202084F83D00002099
:1019A000CDE70220CBE7FEE701684A69D243520542
:1019B0000FD46FF480624A61002140F8301F20226A
:1019C00042738173026942F00402026101730120D3
:1019D00070470020704700002DE9F84F044600686A
:1019E00089460B9D01689846174641F48061016065
:1019F0002068016841F48071016000954FF0011B7F
:101A00000022594620460A9B00F0DEF84FF4007A87
:101A100040B120680068C00501D5C4F840A003208B
:101A2000BDE8F88F216809F0FE0008612B462849BF
:101A300020460A9A00F0FCF8F0BB206841698069F2
:101A400000902A4620460A9900F070F940B1206CB7
:101A500004283AD12068016841F40071016034E043
:101A6000FEB2B8F1010F09D02168380A08612A4690
:101A700020460A9900F05AF90028E8D1206806614A
:101A80002A4620460A9900F051F90028DFD1206843
:101A9000016841F48071016000950022594620469A
:101AA0000A9B00F091F80028B3D1216809F0FF00EB
:101AB00040F00100086100E007E02B4604492046A1
:101AC0000A9A00F0B5F80028AAD00120A8E7000083
:101AD000020001002DE9F843044600680D46DDE9E7
:101AE000089701689846164641F4807101604B469C
:101AF00000224FF001112046009700F065F848B130
:101B000020680068C00502D54FF4007020640320EF
:101B1000BDE8F883216805F0FE0008613B464A46AF
:101B20001549204600F084F888B920684169806929
:101B300000903A464946204600F0F8F848B1206C3B
:101B4000042804D12068016841F40071016001207B
:101B5000DEE7F5B2B8F1010F09D02168300A08615B
:101B60003A464946204600F0E1F80028E7D12068CF
:101B700005610020CCE700000200010070B51646A8
:101B80000D4604460DE02046FFF70EFF08B1012088
:101B900070BD681C05D0FFF771F8801BA84207D8FC
:101BA00035B120684069C0434007ECD4002070BDC7
:101BB000002044F8300F20216173A073216941F0A7
:101BC000200121612073E2E72DE9F0471E4690468F
:101BD0000D460446C1F30747DDF8209008E0701C6D
:101BE00006D0FFF74BF8A0EB0900B0420FD876B152
:101BF0002068012F18D0806925EA00000004000C3D
:101C000014D000214145EAD00020BDE8F087002033
:101C100044F8300F20216173A073216941F0200145
:101C2000216120730120F0E74069E5E70121E9E740
:101C30002DE9F0479A4691460E46044600254FF09E
:101C40002008C1F3074725E020684069C0434005EC
:101C500014D42068016841F40071016021686FF4B8
:101C600080604861256384F83D8084F83E50206C94
:101C700040F00400206484F83C501FE0B9F1FF3FBD
:101C800008D0FEF7FBFFA0EB0A0149450CD8B9F1DB
:101C9000000F09D02068012F13D0806926EA0000C8
:101CA0000004000C0BD0CFE744F8305F84F80D80BF
:101CB000A573206940F02000206125730120BDE854
:101CC000F0874069EAE72DE9F041002590460E468D
:101CD0000446202717E04069C043C0060CD454F8DE
:101CE000301B6FF01000486144F810596777A577F2
:101CF000206A2062257717E0FEF7C0FFA0EB0800FE
:101D0000B04208D83EB120684169C9434906E2D4CF
:101D10000020BDE8F08144F8305F6773A573206947
:101D200040F02000206125730120F2E770B51646CF
:101D30000D4604460DE02046FFF736FE08B10120AF
:101D400070BD681C05D0FEF799FF801BA84207D81C
:101D500035B120684069C0430006ECD4002070BD56
:101D6000002044F8300F20216173A073216941F0F5
:101D7000200121612073E2E72DE9F04385B00024C2
:101D800025480094019402940394816941F0100164
:101D90008161816901F010010491816941F02001A4
:101DA0008161816901F020010491816941F008019C
:101DB0008161816901F008010491816941F00401A8
:101DC00081618069DFF8548000F004004FF4005511
:101DD0000490002229464046FEF74AFFDFF8409073
:101DE0006F10002239464846FEF742FF0095022652
:101DF00001250396CDE9015469464046FEF748FEA9
:101E000000970396CDE9015469464846FEF740FE27
:101E100005B0BDE8F0830000001002400010014052
:101E2000000C01400D4810B50B4901600C494160A0
:101E300000214FF480428160C0E903124161816159
:101E4000C1610162FEF720FF002803D0BDE8104009
:101E5000FEF709BE10BD00000054004064000020E1
:101E6000A08601000C4810B50A4901604FF4E13129
:101E70004160002181600C22C160C0E904128161CF
:101E8000C161FFF7CDFC002803D0BDE81040FEF78C
:101E9000EABD10BD00380140B8000020FEE7FEE7B3
:101EA00070477047FFF7A2B930B58FB02821684658
:101EB000FEF763F914210AA8FEF75FF9012108046F
:101EC000CDE900100024029402250491CDE90750C9
:101ED0004FF4E01009906846FFF7FEFA08B172B6B9
:101EE000FEE70F20CDE90A054FF48060CDE90C40F4
:101EF00002210AA80E94FFF703FA002801D072B657
:101F0000FEE70FB030BD704770B504460068016948
:101F1000E26821F44051114301612169A06808433E
:101F2000616908432168CA6841F20C639A4302431D
:101F3000CA6020684169A26921F44071114341617E
:101F40001E492068884202D1FFF780FA01E0FFF7BE
:101F50006DFA00EBC00101EB0012606864218000A3
:101F6000B2FBF0F3B3FBF1F36FF018067343B2FB6F
:101F7000F0F5B2FBF0F605EB8305322303EB051514
:101F8000B5FBF1F5B6FBF1F605F0F00505EB06152E
:101F9000B2FBF0F6B2FBF0F0B0FBF1F06FF018021C
:101FA000504306EB800003EB0010B0FBF1F021681A
:101FB00000F00F002844886070BD00000038014028
:101FC0002DE9F041984617460E460446069D1DE051
:101FD000681C1BD02DB1FEF751FEA0EB0800A842F3
:101FE00014D92068C16821F4D071C16020684169AA
:101FF00021F001014161202084F83D0084F83E0079
:10200000002084F83C000320BDE8F08120680068CF
:1020100036EA000004D00020B842D9D00020F3E70F
:102020000120F9E7FEE700000FB4054B10B503A946
:10203000044A029800F06CF910BC5DF814FB000033
:10204000453000085C000020490050EAC12018BF5C
:1020500004204A0D18BF40F0010040F2FF72B2EBBD
:10206000515F08BF40F00200012808BF05207047FB
:102070000907090E002804DB00F1E02080F80014B5
:10208000704700F00F0000F1E02080F8141D704749
:102090002DE9F0414F1E00EBC7010446D1E90001D4
:1020A00015461E4637F006020DD02A463346FEF787
:1020B00043F97F1E04EBC703D3E90023FEF7EFFAD1
:1020C00037F00602F1D1022F25D0042F13D0062FAE
:1020D00018BFBDE8F0812A463346FEF72DF9D4E952
:1020E0000A23FEF7DCFA2A463346FEF725F9D4E93F
:1020F0000823FEF7D4FA2A463346FEF71DF9D4E941
:102100000623FEF7CCFA2A463346FEF715F9D4E942
:102110000423FEF7C4FA2A463346FEF70DF9D4E944
:102120000223FEF7BCFA2A463346FEF705F9D4E946
:102130000023BDE8F041FEF7B2BA0122FEF7C5BBAD
:10214000FEF7ADBA0022134610461146FEF74EBB0D
:10215000024A00201107FEF7B8BB000001FDFFFF97
:1021600002E008C8121F08C1002AFAD17047704760
:10217000002001E001C1121F002AFBD170470000BE
:102180000149086070470000600000202DE9FF5FF2
:1021900082B00021DDE90430020DDDF840B00343D8
:1021A00018D044F61050A2F2FF3242431514119891
:1021B00001281FD0A5EB0B00401C5FEA000A4FF07E
:1021C00000064E4FDFF83891B046504615D5CAF19B
:1021D000000413E0119801244AA3012801D16FEAF9
:1021E0000B010298119AC0E90031C0E9024206B021
:1021F000BDE8F09FCBF10000DFE704460021404A34
:10220000491842EB0450CDE9001012E0E00707D076
:1022100032463B4640464946FEF78EF880468946A0
:1022200032463B4610461946FEF786F806460F46EC
:102230006410002CEAD1DDE90401DDE90023BAF1E4
:10224000000F06DAFEF778F842464B46FEF774F8C0
:1022500005E0FEF7CBFA42464B46FEF7C7FA0446C6
:102260000E460022284BFEF70BF903D84FF0FF3043
:10227000014607E00022254B20463146FEF70FFAC3
:10228000FEF78BFB102409E0002C0ADB0A22002356
:10229000FEF740F9039B30321A55641E50EA0102E2
:1022A000F2D1641C039AC4F111031444119A012A57
:1022B00003D0012208430DD10AE0084304D00020D6
:1022C0004FF0110B119072E7A3EB0B056D1E0DE0A3
:1022D0005B4504DD4FF0000205F1010504E003DA7F
:1022E0004FF00002A5F10105002AECD002981199E7
:1022F000C0E90231C0E9004579E700000000144060
:102300000000F03F300000000000F0430000E03F1C
:102310002DE9FF4F95B09A46884606460025EEE126
:10232000252877D100242746F94A0121039400E0AB
:10233000044316F8013F203B01FA03F01042F7D1A5
:1023400030782A2811D06FF02F033078A0F13002B6
:10235000092A16D8039A44F0020402EB820203EB26
:1023600042021044761C0390EFE758F8042B0392C6
:10237000002A03DA504244F40054039044F002046B
:10238000761C30782E2816D116F8010F44F004047C
:102390002A280DD06FF02F023078A0F13003092BDE
:1023A00009D807EB870302EB4303C718761CF3E752
:1023B00058F8047B761C30786C280FD006DC4C284B
:1023C00017D068280DD06A2814D104E0742810D0E2
:1023D0007A280FD10DE044F400140AE044F480148C
:1023E00001E044F440147278824202D104F5801472
:1023F000761C761C307866280BD013DC582877D0F2
:1024000009DC002875D04528F6D04628F4D04728A6
:102410001AD193E118E0632835D0642879D0652873
:1024200012D18BE1702873D008DC6728F1D06928BD
:102430006FD06E280DD06F2806D1ACE073282CD059
:10244000752874D0782853D05246179990476D1C40
:1024500054E1C4F30250022809D003280DD0D8F863
:10246000001004280DD00D6008F1040846E1D8F8EA
:102470000010EA17C1E90052F6E7D8F800100D8005
:10248000F2E70D70F0E718F8041B8DF8001000203B
:102490008DF80100EB46012003E058F804BB4FF033
:1024A000FF3061074FF0000102D40DE009F1010196
:1024B0008946B9420FDA8145F8DB1BF8091000297B
:1024C000F4D108E009F1010189468142FADB1BF8E9
:1024D00009100029F6D103985346A0EB09072146BD
:1024E0003846179A00F080FA284400EB090507E007
:1024F00044E008E10DE01BF8010B524617999047A4
:10250000B9F10109F7D2534621463846179AF2E04D
:1025100039E00A21C4F302524FF0000B0091022A65
:1025200006D058F8040BC117032A09D00AE023E0AB
:1025300008F1070020F00702F2E80201904605E0EA
:1025400000B2C117042A01D140B2C117002906DA2E
:102550000A460021404261EB02012D2202E02205E1
:1025600004D52B228DF80420012203E0E20701D0DC
:102570002022F7E7914657E00A2100E010214FF0B2
:10258000000B00910BE010214FF0000B44F004040D
:102590000827009103E008204FF0000B0090C4F3DF
:1025A0000252022A05D058F8040B0021032A08D051
:1025B00008E008F1070020F00702F2E80201904667
:1025C00003E080B2042A00D1C0B24FF00009220714
:1025D0002AD53278702A07D0DDF800C08CF0100CB4
:1025E0005CEA0B0C05D00EE040228DF8042001229D
:1025F00008E050EA010306D030238DF804308DF84E
:10260000052002229146009B83F0080353EA0B0346
:102610000AD150EA010201D1620705D530228DF8B6
:1026200004204FF001097F1E3278582A04D039A2C5
:102630000C920CAA02920BE03BA2F9E75B46009ACF
:10264000FDF768FF0C9B9B5C029A521E029213706E
:1026500050EA0102F2D1029804A9081A00F1200BF5
:10266000600702D524F4803400E001275F4502DDD5
:10267000A7EB0B0000E0002000EB0B01009003989B
:102680004944401A0390E00306D453462146179A62
:10269000039800F0A9F90544002706E001A8524676
:1026A000C05D179990476D1C7F1C4F45F6DBE0031A
:1026B0000CD553462146179A039800F095F9054426
:1026C00004E030205246179990476D1C0099481E2F
:1026D00000900029F5DC08E0029802995246007843
:1026E000491C0291179990476D1CBBF10001ABF199
:1026F000010BF1DC5BE100F065F90544761C3078F4
:1027000000287FF40DAE19B02846BDE8F08F000018
:1027100009280100303132333435363738396162B7
:10272000636465660000000030313233343536377B
:10273000383941424344454600000000600700D458
:10274000062708F1070020F00700F0E80223804682
:1027500003F0004C5FEA0C0001D097A009E02005CF
:1027600001D596A005E0E00701D095A001E0AFF209
:102770004C001390307823F0004365280CD006DC21
:10278000452809D046281DD047287FD13BE0662840
:1027900018D067287AD136E00021112F01DB1120F3
:1027A00000E0781CCDE9000104A90CA8FFF7EEFCBD
:1027B000DDE90D010C9A4FF0000B07F101091092B1
:1027C00000914EE04FF000400097CDE9011004A9C0
:1027D0000CA8FFF7DBFCDDE90D020C9B0F994FF015
:1027E000000B91461093009211B9791C00EB01097E
:1027F000B7EB090003D4C0F1FF3B07F10109A9EBD6
:102800000700019042E0012F00DA01270021112F7B
:1028100001DD112000E03846CDE9000104A90CA833
:10282000FFF7B4FCDDE90D010C9A00914FF0000BAD
:10283000B946109221070FD4009A4A4503DA91460F
:1028400001E0A9F10109B9F1010F05DD109AA9F123
:102850000101515C3029F4D0B84202DA10F1040FC2
:1028600003DA0121CDE9011010E0002803DC8344E4
:10287000A9EB000102E0411C494500DD8946A0EBBF
:102880000B00401C01904FF000400290200705D43F
:102890000198484502DB4FF0FF30019000208DF891
:1028A0004B0002980DF14B07B0F1004F25D00220EC
:1028B0000C902B200D90029800280CDA40420290D8
:1028C0002D200D9007E00A210298FDF70DFE303112
:1028D000029007F8011D0C99481E0C900029F2DCAB
:1028E00002980028EFD1791E0D980870307800F01A
:1028F000200040F0450007F8020D11A8C01BC01DC4
:1029000002901398007800B1012000EB09010198B2
:1029100001EBE071029801440398401A401E0390B5
:10292000E00306D453462146179A039800F05CF85A
:1029300005441398007818B15246179990476D1CBA
:10294000E00323D553462146179A039800F04CF82C
:1029500005441BE0BBF1000F07DB0098584504DD80
:102960001098179910F80B0001E017993020524683
:10297000904701980BF1010B401E05F101050190F4
:1029800004D12E205246179990476D1CB9F10001D1
:10299000A9F10109DEDC05E017F8010B5246179991
:1029A00090476D1C0299481E02900029F4DC5346A2
:1029B0002146179A03989EE62D0000002B00000088
:1029C000200000002DE9F041044600251E46174670
:1029D000880404D405E039462020B0476D1C641EED
:1029E000F9D52846BDE8F0812DE9F04104460025DF
:1029F0001E469046C80301D5302700E020278804F2
:102A000004D505E041463846B0476D1C641EF9D533
:102A10002846BDE8F08100002DE9F04D8D4F21F0F2
:102A2000004A86B005460C46BA452ADBAAEB0700E9
:102A300028430AD08848824501DC1AD1CDB106B0BE
:102A40002846BDE8F04DFFF778BB844A844B284602
:102A5000FDF772FC07460E46824A834B2846214604
:102A6000FDF76AFC06B03A463346BDE8F04DFDF787
:102A700016BE0120FFF784FB06B0BDE8F04DFFF75E
:102A800061BB7A48824542DABAF1795F0BDA2846AF
:102A9000FFF7DAFA042808BFFFF75AFB284606B00A
:102AA0002146BDE8F08D2A460B461046FDF744FC52
:102AB000834602466E480E460B4606217844FFF7D1
:102AC000E7FA5A463346FDF737FC804669488A469E
:102AD0005A46334604217844FFF7DAFA5A46334619
:102AE000FDF72AFC00223B46FDF7D9FD02460B46C6
:102AF00040465146FDF77AFE2A462346FDF71CFC68
:102B000006B02A462346BDE8F04DFDF7C8BD28466D
:102B100024F0004100223D463B46FDF764FE4FF0A5
:102B2000FF32FDF7D2FE0646024653480F460B46DB
:102B300006217844FFF7ACFA32463B46FDF7FCFB32
:102B4000CDE900014D4832463B4604217844FFF769
:102B50009FFA32463B46FDF7EFFB00222B46FDF77E
:102B60009EFD834602913046394601F049F8804681
:102B700043480D46504517DCDDE900015A46029BEB
:102B8000FDF734FE42462B46FDF7D6FB42462B4668
:102B9000FDF785FD0122FDF798FE304A304BFDF729
:102BA0001FFE304A304B4CE04FF0000A52460B46B5
:102BB0004046FDF774FDCDE9031052462B46104602
:102BC0001946FDF7B9FB32463B46FDF70CFEDDE941
:102BD0000332FDF70BFE06460F46DDE900015A46BB
:102BE000029BFDF703FE83460091012230463946E1
:102BF000FDF76BFE194A1A4BFDF7F5FD06460F4629
:102C0000012240462946FDF760FE5A46009BFDF72B
:102C100093FB32463B46FDF7E3FD06460F46012295
:102C200050462946FDF751FE0E4DDFF858802A46E2
:102C30004346FDF7D8FD32463B46FDF7D4FD2A4614
:102C40004346FDF7D0FD002CD8BF81F0004106B00F
:102C5000BDE8F08D0000F03F0000F07F075C14330A
:102C600026A6913C182D4454FB21F93F0000E03F7B
:102C7000B8110000CE1100004211000058110000F0
:102C80003333EF3FFB21E93F2DE9F84F04460D4672
:102C900021F0004000917349814211DC7249884261
:102CA00001DC06D12CB120462946BDE8F84FFFF7DC
:102CB00044BA6E48002DCCBF6D496E49BDE8F88F0F
:102CC0006D49814211DD6D498142D8BF4FF0FF3619
:102CD0006DDD20462946FFF7B7F9042808BFFFF746
:102CE00037FA20462946BDE8F88F6549654F25F03B
:102CF0000045814233DD6449814219DD00263246B8
:102D00004FF0804320462946FDF7C9FC80468A469D
:102D1000012220462946FDF7D8FD00223B46FDF75B
:102D20005FFD42465346FDF761FD04460D463EE019
:102D300001260022BA463B4620462946FDF7AFFC55
:102D400080460F460022534620462946FDF748FD9F
:102D500042463B46FDF74AFD04460D4627E04B49F7
:102D600081421BDDDFF828A10226002253462046BF
:102D70002946FDF7E1FA00223B46FDF790FC80462C
:102D80000F460022534620462946FDF729FD4246BC
:102D90003B46FDF72BFD04460D4608E00326224680
:102DA0002B4600203B49FDF721FD04460D462246F7
:102DB0002B4610461946FDF7BFFA8B46824602465F
:102DC0000B46FDF7B9FA07460246334888460B46DC
:102DD00006217844FFF75CF952465B46FDF7ACFAF2
:102DE00082462E488B463A46434605217844FFF7F3
:102DF0004FF93A464346FDF79FFA02460B46002E2E
:102E0000504659460CDAFDF74AFC22462B46FDF7A0
:102E100093FA01B022462B46BDE8F04FFDF7E3BC24
:102E2000FDF73DFC22462B46FDF786FA1C4A7A4404
:102E300002EBC603D3E90023FDF7D2FC22462B4662
:102E4000FDF7CEFC174A7A4402EBC603D3E9002310
:102E5000FDF7C9FC009A002AB8BF81F00041BDE827
:102E6000F88F0000000010440000F07F182D44543B
:102E7000FB21F93FFB21F9BF0000DC3F0000203EB1
:102E80000000F33F0000F03F0000E63F00800340F9
:102E90000000F83F0000F0BF5A0F0000180F0000BC
:102EA000B60E00007E0E00002DE9F04D9446CCF1E8
:102EB000000423F000464CEA0404594F46EAD47457
:102EC0009A46884621F00042BC4206D8454240EA74
:102ED000050442EAD474BC4204D9BDE8F04D624610
:102EE000FFF72EB9AAF14055A5F17F6555EA0C040C
:102EF0000BD0022404EAAA744A4DDFF82CE144EA1C
:102F0000D87452EA000B04D00CE0BDE8F04DFFF796
:102F1000BBBE002C14BF012CBDE8F08D022C30D0BC
:102F2000032C32D056EA0C0B0AD0BE4220D1BA4252
:102F300009D126F0804622F080423346114617E040
:102F400000291ADB25E0DFF8E4B0FB44002C04BFC5
:102F5000DBE90001BDE8F08D012C02BFDBE90001D7
:102F600081F00041BDE8F08D022C0AD0032C0CD07A
:102F7000BA4212D1B8F1000F0BDA2A482C49BDE849
:102F8000F08D28462B49BDE8F08D28467146BDE8F6
:102F9000F08D24482849BDE8F08D921B12153C2A7B
:102FA000C4BF204F244E10DCBAF1000FBEBF12F197
:102FB0003C0F00273E4608DB6246FDF717FC21F078
:102FC0000041FFF761FE07460E4694B1012C08BF91
:102FD00086F000460DD0194A194B022C384631466E
:102FE00015D0FDF7FDFB2A46BDE8F04D114BFDF76E
:102FF000F7BB0022134638463146FDF7E7FC04BF15
:103000000220FFF7BDF838463146BDE8F08DFDF7E8
:10301000E7FB2A46BDE8F04D064BFDF7E4BB000098
:103020000000F07F182D4454FB2109C0120E00004F
:10303000FB21F9BFFB210940FB21F93F075C143359
:1030400026A6A13C38B5044600904FF47A730122BD
:1030500069460248FEF74EFC204638BDB800002005
:103060002DE9F04FFE4C93B061686068FDF7E8F819
:103070000B90A1686068FDF7E3F8E168824660683C
:10308000FDF7DEF8216983466068FDF7D9F8A1688D
:103090008146A068FDF7D4F80790E168A068FDF7C5
:1030A000CFF806902169A068FDF7CAF80590E1689D
:1030B000E068FDF7C5F803902169E068FDF7C0F806
:1030C000049021692069FDF7BBF8E64D029028695C
:1030D000206268696062A869A062B5F90000FDF726
:1030E0009DF9E062B5F90200FDF798F92063B5F9A2
:1030F0000400FDF793F96063B5F90600FDF78EF95A
:10310000A063B5F90800FDF789F9E063B5F90A0095
:10311000FDF784F92064FDF7B1FDA064A06C616C3B
:10312000401AFDF784F9D049FDF7BCF80090A06C77
:103130006064616B606BFDF783F8216B0646206B62
:10314000FDF77EF8E16A0546E06AFDF779F8294661
:10315000FDF71EF83146FDF71BF800F0C5FB0546EC
:103160000146E06AFDF76CF8E0622946206BFDF746
:1031700067F820632946606BFDF762F86063216C95
:10318000206CFDF75DF8E16B0646E06BFDF758F843
:10319000A16B0546A06BFDF753F82946FCF7F8FF35
:1031A0003146FCF7F5FF00F09FFB05460146A06B9A
:1031B000FDF746F8A0632946E06BFDF741F8E063B0
:1031C0002946206CFDF73CF8206459460598FCF729
:1031D000DFFF05460F900121206CFDF7A1F829467D
:1031E000FDF72EF8074649460698FDF723F80546F1
:1031F00010900121E06BFDF793F82946FDF720F8C8
:1032000006464FF07C5080460399FDF713F802996B
:10321000FDF710F8054611900121A06BFDF780F82D
:103220002946FDF70DF83146FCF7B2FF3946FCF7A9
:10323000AFFF074651460498FCF7FCFF0546012105
:10324000206CFDF76DF82946FCF7FAFF064640466C
:103250000799FCF7EFFF80460299FCF7EBFF054664
:103260000121E06BFDF75CF82946FCF7E9FF054614
:1032700049460698FCF78CFF81460121A06BFDF7BB
:103280004FF84946FCF7DCFF2946FCF781FF314641
:10329000FCF77EFF064640460399FCF7CBFF054648
:1032A00008900121206CFDF73BF82946FCF7C8FF88
:1032B000804651460498FCF76BFF05460A900121B1
:1032C000E06BFDF72DF82946FCF7BAFF0546594695
:1032D0000598FCF7AFFF81460121A06BFDF720F8B0
:1032E0004946FCF7ADFF2946FCF752FF4146FCF783
:1032F0004FFF054631460846FCF7A2FF0646394611
:103300000846FCF79DFF3146FCF742FFFDF7A5F8A4
:1033100000F076FCFDF7CCF8074648460121FCF7A3
:10332000FFFF059001210A98FCF7FAFF83460799F1
:103330000B98FCF77FFF0399FCF77CFF0299FCF7E1
:1033400027FF82464E4601212846FCF7E9FF314619
:103350000B90FCF775FF064601213846119DFCF7DE
:10336000DFFF07462946FCF76BFF3146FCF710FFED
:103370008146DDE90A10FCF763FF054638461099DF
:10338000FCF75EFF2946FCF703FF804608990B987F
:10339000FCF756FF054638460F99FCF751FF2946C2
:1033A000FCF7F6FE05464146206CFCF749FF064651
:1033B0002946E06BFCF744FF3146FCF73BFF06462D
:1033C0005946606BFCF73CFF07465146206BFCF703
:1033D00037FF3946FCF72EFF3146FCF7D9FE07468A
:1033E0002946A06BFCF72CFF05464946206CFCF7EC
:1033F00027FF2946FCF71EFF05465146E06AFCF709
:103400001FFF06460599606BFCF71AFF3146FCF773
:1034100011FF2946FCF7BCFE06464946E06BFCF767
:103420000FFF05464146A06BFCF70AFF2946FCF753
:1034300001FF05460599206BFCF702FF80465946BF
:10344000E06AFCF7FDFE4146FCF7F4FE2946FCF776
:103450009FFE054617F0FF4F50D016F0FF4F05E0D6
:1034600010000020FC0000200000FA4446D015F0B7
:10347000FF4F43D0DFF8CC8138464146FCF7E0FEF1
:103480000099FCF7DDFE6169FCF782FE6061414650
:103490003046FCF7D5FE0099FCF7D2FEA169FCF797
:1034A00077FEA06141462846FCF7CAFE0099FCF76A
:1034B000C7FEE169FCF76CFEE06101213846FCF7CC
:1034C0002FFF216AFCF764FE6169FCF761FE206250
:1034D00001213046FCF724FF616AFCF759FEA1691F
:1034E000FCF756FE606201212846FCF719FFA16A2D
:1034F000FCF74EFEE169FCF74BFEA062A16A206971
:10350000FCF79EFE616A0646E068FCF799FE0546F8
:10351000A068216A80F00040FCF792FE2946FCF783
:1035200089FE3146FCF786FE0099FCF789FE61684A
:10353000FCF72EFE616A80462069FCF781FEA16AD5
:103540000646E068FCF77CFE216A05466068FCF7E9
:1035500077FE2946FCF71CFE3146FCF76BFE00990E
:10356000FCF76EFEA168FCF713FE216A074620698E
:10357000FCF766FEA16A0646A068FCF761FE616A78
:1035800005466068FCF75CFE2946FCF753FE3146B1
:10359000FCF7FEFD0099FCF753FEE168FCF7F8FD2F
:1035A000216A0646E068FCF74BFE616A8146A06826
:1035B000FCF746FEA16A05466068FCF741FE294615
:1035C000FCF7E6FD4946FCF735FE0099FCF738FEAE
:1035D0002169FCF7DDFD05460146FCF731FE834617
:1035E00031460846FCF72CFE824639460846FCF771
:1035F00027FE814641460846FCF722FE4946FCF775
:10360000C7FD5146FCF7C4FD5946FCF7C1FD00F06B
:103610006BF9814601464046FCF712FE6060494660
:103620003846FCF70DFEA06049463046FCF708FE20
:10363000E06049462846FCF703FE206113B0BDE870
:10364000F08F00000AD7233C2DE9F0474B4C0121B5
:103650002069FCF765FE2169FCF7F2FD05464FF095
:1036600040484146E068FCF7EBFDE168FCF7E8FD07
:103670002946FCF7DFFD4FF07E594946FCF788FDEF
:10368000FCF7EBFE06460D4601216068FCF748FE9C
:103690002169FCF7D5FD07460121A068FCF740FE33
:1036A000E168FCF7CDFD3946FCF772FDFCF7D5FE6D
:1036B00032462B46FFF7F8FB314F4FF0663A524641
:1036C0003B46FCF739FEFCF7F3FE2E4E012130633A
:1036D0006068FCF725FEE168FCF7B2FD054641464F
:1036E000A068FCF7ADFD2169FCF7AAFD2946FCF7AF
:1036F0004FFDFCF7B2FEFFF78FF952463B46FCF751
:103700001BFEFCF7D5FEF0620121E068FCF708FE25
:10371000E168FCF795FD05464146A068FCF790FD81
:10372000A168FCF78DFD2946FCF784FD4946FCF7AE
:103730002FFDFCF792FE05460F4601216068FCF75D
:10374000EFFDA168FCF77CFD80460121E068FCF7F5
:10375000E7FD2169FCF774FD4146FCF719FDFCF714
:103760007CFE2A463B46FFF79FFB5246064BFCF782
:10377000E3FDFCF79DFEB062BDE8F087100000207D
:1037800066A64CC0FC00002066A64C402DE9F05F08
:103790003D48DFF8F8803E4CB0F90610B0F908005B
:1037A0003C4D3D4EDFF8F490DFF8F4A0DFF8F4B0C4
:1037B000002935DA3C4F00281ADA91FBF0F0FCF7CB
:1037C0003BFE21F000410022384BFCF759FE06D8A1
:1037D000C4F80480A5603648E060364805E0364805
:1037E00060603648A060E66035482061BDE8F09F23
:1037F000FCDD91FBF0F0FCF71FFE21F00041002200
:103800002A4BFCF73DFE676004D8A560C4F80C9015
:103810002C48EAE7C4F808A0C4F80CB02A48E4E74A
:10382000E4DD2A4F002818DD91FBF0F0FCF704FEE0
:1038300021F0004100221D4BFCF722FE06D824484F
:103840006060C4F80890E5604046CEE721486060BB
:10385000C4F808B0C4F80CA0C7E7C7DA91FBF0F0D1
:10386000FCF7EAFD21F000410022104BFCF708FEB6
:10387000676004D81848A060E5601848B5E7A660FE
:103880001748E0601748B0E7FC0000200AD7A3BB48
:1038900010000020A8C64BBEE17A543F355E7ABFC7
:1038A00068910DBFE17A54BF0AD7A33B0000F03FF7
:1038B000BE9F7A3F4ED111BC6F1203BC7B140EBF6A
:1038C0006F1203BBA69B443C99BB16BB0AD7233B94
:1038D00052499D3A99BB163B355E7A3F6F12033CC5
:1038E000295C0FBFBC74933B10B504464FF0FF3109
:1038F000FCF716FD0849A1EB64042146FCF7A0FC87
:103900002146FCF79DFC4FF07F51FCF796FC2146C9
:10391000BDE81040FCF794BCDF59375FFDF76EFC43
:10392000FEF7C2FAFEF728FAFEF79CFAFEF77AFADB
:1039300012A0FEF779FB00F029F8FFF727FF0FA090
:10394000FEF772FB00F052F8FFF78AFBFFF77CFEF0
:103950004FF47A70FDF78AF80A4C00BF00F046F881
:10396000FFF77EFBFFF770FEE06AFCF776FD02468C
:103970000B4605A0FEF758FBF0E700007375636384
:1039800065737300FC00002025660A0030B585B021
:103990006420FDF76BF8752000F0EAF81149002467
:1039A0001422887010496846FCF7CEFB4FEA0D05DB
:1039B00005EB4400417815F8140000F00BF90120E4
:1039C000FDF754F8641CE4B20A2CF1D3032000F094
:1039D000FCF8022000F0F4F800F076F805B00020C2
:1039E00030BD000010000020643C00082DE9F041CB
:1039F0000E2230493B2000F0D1F82E4A02F10E0190
:103A0000108840BA0880508840BA4880908840BAF0
:103A10008880D08840BA03B28B8110894C8B40BA21
:103A2000001B05B2CD8150898C8B40BA001B04B2BB
:103A30000C829089CA8B40BA801A06B2A1F142006A
:103A40004E82D0F842100160D0F846104160D0F8A4
:103A50004A1081601846FCF7E1FC1749FCF722FC8C
:103A60001649FCF795FB134F343FF8602846FCF7E6
:103A7000D5FC134D2946FCF715FCDFF8488041467C
:103A8000FCF710FC38612046FCF7C8FC2946FCF71F
:103A900009FC4146FCF706FC78613046FCF7BEFCA9
:103AA0002946FCF7FFFB4146FCF7FCFBB861BDE88B
:103AB000F0810000300100205CEFA6430000A84127
:103AC0006F128341333365422DE9F041274E0027C1
:103AD00006F10E044FF496750E2224493B2000F0A7
:103AE0005DF83188A08A49BA0844A0827188E08ACA
:103AF00049BA0844E082B188208B49BA084420833F
:103B00003189608B49BA084460837189A08B49BAB6
:103B10000844A083B189E08B49BA0844E0830520BA
:103B2000FCF7A4FF7F1CAF42D6DBB4F9140090FB76
:103B3000F5F0A082B4F9160090FBF5F0E082B4F93C
:103B4000180090FBF5F02083B4F91A0090FBF5F013
:103B50006083B4F91C0090FBF5F0A083B4F91E005B
:103B600090FBF5F0E083BDE8F0810000300100201B
:103B70000EB508494FF47A7301228DE80E0040F02B
:103B800080020123D0210448FDF742F90148401E7C
:103B900040780EBD11000020640000200EB54FF4E7
:103BA0002F7353438DE80E0040F080020123D02193
:103BB0000248FDF72DF900200EBD00006400002032
:103BC000C006010E1C2000F005B8C006010E1B2027
:103BD000AFF300800EB5084A012311704FF47A71DB
:103BE000CDE90023029100F07F02D0210348FDF7C8
:103BF00037FA00200EBD00001000002064000020F5
:103C00002DE9F04106460F46FCF776FE041E0D46F0
:103C100018BF0120284320F00040C0F17F6000F170
:103C2000E040C00F0ED0301C18BF0120384320F0F8
:103C30000040C0F17F6000F1E040C00F04BF0120F0
:103C4000FEF79EFA20462946BDE8F08100000000FC
:103C5000000000000102030406070809000000003C
:103C6000010203046B806B036C001A041B181C1008
:103C70001D026A2000000000555555555555C53F99
:103C80007D6FEB0312D6D4BF5544880E55C1C93F92
:103C90003B8F68B52882A4BF88B20175E0EF493F29
:103CA00009F7FD0DE13D023F4B2D8A1C273A03C069
:103CB000C88A599CE52A004059018D1B6C06E6BF55
:103CC00082922EB1C5B8B33F4FBB610567ACDD3FF3
:103CD000182D4454FB21E93F9BF681D20B73EF3F33
:103CE000182D4454FB21F93FE2652F227F2B7A3CAB
:103CF000075C143326A6813CBDCBF07A8807703C64
:103D0000075C143326A6913CC4EB98999999C9BFD6
:103D1000711623FEC671BCBF6D9A74AFF2B0B3BF0B
:103D20009AFDDE522DDEADBF2F6C6A2C44B4A2BFCB
:103D30000D5555555555D53FFF8300922449C23F37
:103D40006E204CC5CD45B73F513DD0A0660DB13F6B
:103D5000EB0D76244B7BA93F11DA22E33AAD903F7D
:103D60000000000000000000883D00080000002066
:103D70006400000060210008EC3D000864000020A1
:103D8000FC04000070210008010000001000000089
:103D9000000000000024F400000000000000803F4C
:103DA0000000000000000000000000000000000013
:103DB0000000000000000000000000000000000003
:103DC00000000000000000000000000000000000F3
:103DD00000000000000000000000000000000000E3
:0C3DE000000000000000000000000000D7
:04000005080000ED02
:00000001FF
